:10000000FC7F0020790500006505000069050000FF
:1000100000000000000000000000000000000000E0
:100020000000000000000000000000006D0500005E
:1000300000000000000000007105000075050000D0
:1000400010B5064C2378002B07D1054B002B02D0AE
:10005000044800E000BF0123237010BD5C000020B5
:10006000000000004C13000008B5084B002B03D023
:100070000748084900E000BF07480368002B03D089
:10008000064B002B00D0984708BDC046000000007A
:100090004C13000060000020580000200000000009
:1000A00070B50368041C988B1A1C0821FF320842A3
:1000B00028D0988B174D0143802099839872112383
:1000C00053704021144B917150715E68C0202E40D6
:1000D000800506435E605E693540284358610F48DD
:1000E00018600F4818615D680E4828408025AD02F1
:1000F000284358605868800B800358600023517172
:10010000237105E0137ADA0602D5201C00F0F4FA18
:10011000207970BDFFFFFF8F940100209400002024
:1001200014010020FF3F00F0002303714371044BD2
:10013000016083600B78022213430B707047C04646
:10014000A100000038B5364B2021DA6901200A43AE
:10015000DA61344B06241A7802431A70324B0F22AC
:100160001978914319701978214319702F490C7827
:100170002043087019780A401A701A7860210A43DF
:100180001A702B4B2B4A5A805A7852B2002AFBDB4A
:10019000294B01211A780A431A709A78D107FCD4A6
:1001A00026480268510B1F221140914200D10521BF
:1001B00011408C011D8D2249294021431985046875
:1001C000A10C0A401F2A00D11D221C8D1F210A40AC
:1001D0008C4322431A8502680721D20D0A408A42C5
:1001E00000D103220A40188D1103164A02400A4327
:1001F0001A8519787F220A401A701A780421124849
:100200000A431A7058621A890C218A431A811A8982
:1002100001218A431A810021802200F03AFF38BD73
:1002200000040040584400413C440041594400410E
:10023000000C004006400000005000412460800097
:100240003FF8FFFFFF8FFFFF94010020F7B5141C5C
:10025000234A5F0101971D1CD319061C5869271CEE
:100260004000400F03301033C74006D00F1C8022DF
:10027000596812060A435A6009E02F1C7B1E9F41F1
:10028000184BBF01FF18381C221C00F0F9FE019921
:100290001348083542181761131C5269A104920BC8
:1002A000890C92030A435A6159690F4A02200A4095
:1002B0005A616B01F318D979032211400143D879AF
:1002C0009043021C0A43DA715979802252420A4350
:1002D0005A716B01F318DB799A07FAD5201CFEBD21
:1002E0009401002014010020FF3F00F0F8B51E4EDD
:1002F000041C3378151C002B12D11C4B1C4A1A64A9
:100300005A6C920B92035A64586C1A4A02405A640F
:10031000A2235B00E25C40200243E25401233370DD
:100320004827FF37E25D012313401AD00F4B5A6C68
:100330009204920CAA4202D25D6CAD04AD0C081C72
:100340002A1C0B4900F09CFEE25D03231A400121A8
:100350000A43E15D99430B1C1343E35500233370BB
:1003600000E01D1C281CF8BD78000020940100202E
:10037000D4000020FF3F00F0FF30827930239A4301
:10038000131C2022002900D11022134383717047CF
:100390000C4BFF305A690221920B92035A61027A88
:1003A00003231A400A43017A99430B1C1343037237
:1003B000827980235B4213438371037A9A07FCD5C9
:1003C0007047C0469401002080235B421943C9B2A4
:1003D0008172704770B5A02303225B00C254134B97
:1003E000134A5C6CC021144089050C4346255C64AB
:1003F000FF35402444550F4D30261D6490256D0077
:1004000046555D6B15402943922559636D00802147
:100410004155094D1D63B0256D0044555C6F224068
:100420005A67B2235B00C15470BDC04694010020DE
:10043000FFFFFF8FD40000205401002030B53E4B59
:100440001E215A688A4302210A433C495A600A6ABB
:100450003B4B13400B623B4B18681C1CC204520EF2
:100460003948120402438A61CB685A07FCD5374BDE
:100470000F205A688243012002435A605A78334859
:1004800052B2002AFADB4568822252022A434260B5
:1004900058782E4A40B20028FADB50680F25A8434E
:1004A0000225284350605A78284852B2002AFADBC5
:1004B0004568832252022A4342605A7852B2002A87
:1004C000FBDB2068800E3F2800D11F20204A214CF2
:1004D00012689205920DA24200D11F4A8002104379
:1004E0008A8C8024A2438A84CC68144AE506FBD512
:1004F0001A49D16291214900906291845A883F2122
:100500008A4302210A435A8059888022D2010A4331
:100510005A805A680F218A435A605A780B4952B25E
:10052000002AFADB48680E4A02434A605A7852B2FF
:10053000002AFBDB30BDC0460040004100080040FF
:10054000FFFCFFFF2460800006060000000C004056
:1005500028608000FF030000FF01000080BB000056
:10056000000701000EBEFEE70DBEFEE705BEFEE77A
:1005700002BEFEE701BEFEE70E4A0F4838B58242D2
:1005800004D10E4A0E4B93420ED10AE00D4C944218
:10059000F7D00023D1188842F3D9E55804330D6011
:1005A000F8E700F04DF804E09342FAD2002102C3CC
:1005B000FAE7FEE7000000205C0000209402002023
:1005C0005C00002050130000194A10B51188FA246D
:1005D000013189B2174BA400A14201D011801CE067
:1005E00000211180144900240C5760431C88001915
:1005F00080B204B2FF2C01DC188002E0FF201880DA
:1006000008700024185F002803DA002018800120F9
:1006100008708020094980028861128800215B5E91
:100620009A4203D18022054B92025A6110BDC04606
:100630007A0000207C0000200000002000440041DF
:1006400038B58022244B92029A605A61234A1C1CBE
:10065000117801221140224B002200290AD118688A
:10066000204A904201D1196018E01A601E4A013AEE
:10067000002AFCD11A601D4B1A68191C501C0DD0A1
:10068000D8B200280AD180208002A06182F30888B5
:10069000FF229343164A93604B681847FFF7CEFE3C
:1006A00062B600F0C3F980239B02051CA3610320FE
:1006B000FFF78AFFAB68281C98470E4B002801D033
:1006C00001221A701B78002BF1D0002000F02AFACA
:1006D00000F07AFAFCE7C0460044004138040040CC
:1006E000FC7F00203581730748E8010000200000EE
:1006F00000ED00E07E000020F8B50468051C201C19
:10070000FF30037AB64A10210B430372B54F1378BA
:10071000B5493B705378B54E0B7093783380D178E0
:10072000338809020B4333801179B14B1980517919
:100730001F8809020F431F809779AE490F80D27935
:100740000F8812023A430A8040224271A648A54F00
:1007500002783878A84F12020243181CBA4200D11E
:1007600099E01EDC802149008A4200D158E107DC73
:10077000812A6AD0822A6ED0802A00D050E164E0BB
:1007800081235B009A4200D1AFE000DA23E1C0236D
:100790009B009A4200D143E1984B9A4200D11AE162
:1007A0003EE190231B019A4242D015DCD023DB00AE
:1007B0009A4222D088231B019A4242D0A023DB0018
:1007C0009A4200D02CE1201CFFF7E2FD3188286816
:1007D00089B2FFF7F9FD27E1894B9A4200D1FAE08F
:1007E00000DC1DE1874B9A4200D1E8E0864B9A423B
:1007F00000D015E133886B71EDE033881B0A012BC3
:1008000008D10B8812222868934201D80A8892B234
:100810007E49DCE033881B0A022B00D000E10B8804
:1008200043222868934201D80A8892B27849CEE0E0
:100830003388201C2B71FFF7ABFD201CFFF7CAFD8E
:10084000F2E0291C01C90122C1E0724900230B809A
:1008500028680222BCE06F4900220A8018885022D2
:1008600010406D4A10701E880F2030401880188884
:10087000032800D9D4E012781B8808335B01E41800
:10088000A379002A01D09B0600E0DB06DB0F0B807A
:10089000286802229BE019887F2291435E4AC9B2F0
:1008A000117018880F21014019803188002900D06B
:1008B000B6E01988002900D1B2E01988032900D9CF
:1008C000AEE012781B8808335B01E318002A05D0DC
:1008D0005A7930218A4320210A4304E05A79302191
:1008E0008A43102002435A7175E002887F239A439D
:1008F000494BD2B21A7001880F220A400280328816
:10090000002A00D08CE00288002A00D188E002880A
:10091000032A00D984E01B78002B27D003880833F2
:100920005B01E3189B79990655D50388302108337C
:100930005B01E3181A798A4320210A431A7103885C
:1009400008335B01E318DB795A0644D5038860213C
:1009500008335B01E318DA798A4340210A43DA71EC
:100960000388022208335B01E31826E0038808337A
:100970005B01E3189B79DF062DD50388302108330E
:100980005B01E3181A798A4310210A431A7103881C
:1009900008335B01E318DB7999061CD503886021D5
:1009A00008335B01E318DA798A4320210A43DA71BC
:1009B0000388012208335B01E3181A710BE00B88EE
:1009C00008222868934201D80A8892B2134900236A
:1009D000FFF73CFC28E0201CFFF7DAFC24E0C046CF
:1009E00094000020890000207F000020800000206B
:1009F00084000020860000200203000001030000A4
:100A000021200000A121000021220000BC100000D4
:100A10000400002082000020880000204800002000
:100A2000201C0121FFF7A8FCF8BDC04610B5054BFE
:100A3000054C2360FFF786FB201C2168FFF774FB41
:100A4000201C10BD005000411402002007B5054BCA
:100A50000122019001A91868131CFFF7F7FB012080
:100A60000EBDC0461402002013B5054B6C4607347A
:100A70001868211C0122FFF739FC207816BDC046FA
:100A80001402002010B5074C201CFFF709FB031CC3
:100A90000020834205D022684823FF33D05C012325
:100AA000184010BD1402002010B5054A0C1C031C90
:100AB000191C10680123221CFFF7C8FB201C10BD65
:100AC0001402002070B5084C061C201C0D1CFFF7FA
:100AD000E7FA0023984205D02068311C2A1CFFF752
:100AE00005FC031C181C70BD14020020F8B50C4C4A
:100AF000051C201C0E1CFFF7D3FA0023271C341CF6
:100B000098420AD0002C07D0291C221C3868FFF715
:100B1000EDFB241A2D18F5E7331C181CF8BDC04650
:100B200014020020002802D1014A024B1A607047CB
:100B3000201100008402002030B51A4B85B01B78CC
:100B4000002B29D0042901D1026804E0022901D137
:100B5000028800E00278490004A843180B3B5C1AA5
:100B6000A3420BD00F201040092802D8302528437B
:100B700000E0373018701209013BF1E701A830237B
:100B80000370782343700A2243189A700D22DA709A
:100B9000054B04311B6801E0034B1B68DB68984779
:100BA00005B030BD900000208402002072B6EFF343
:100BB0000883044A1360036883F30888436818476E
:100BC0007047C04688020020F0B58FB006A9CE4A13
:100BD0000B1C31CA31C351CA51C360CA60C3CB4C6C
:100BE000CB48A3687A255B035B0F9B005B58C94920
:100BF0000360A26892B253430A60C749C74A0B60B8
:100C000000231360C64B1D700320FFF7DDFCC54BAE
:100C1000C54D1B68281C1B6940219847C34B002207
:100C20001860C34B1D60C34BC24DC04F1A6028688B
:100C300039688842E8D2BE4B1B681A78FF2A00D177
:100C4000F6E1232A00D0CDE1BB4E3378002B05D04E
:100C5000B44BBA481B680221DB689847B04B1B783D
:100C6000532B38D13B682A6893421ED9B0480132D1
:100C70002A609A1AB24B01681B6801310160B14EBB
:100C80009A4201D2326000E03360A44832680068C2
:100C9000029000F0F5F9336829685A182A60A44ACE
:100CA0001668F1181160A84A13702B68013B2B607D
:100CB0009F4B1A68013A1A60A34BA14A1B7811682E
:100CC0008B4206D2974A954812680068C91A926901
:100CD0009047C04675E1522B07D1904A914B10685E
:100CE0001B68974A5B6911686AE14F2B05D18B4BF2
:100CF000934A1B6812681A7063E1482B05D1874B31
:100D00008F4A1B6812681A805BE1572B05D1834B11
:100D10008B4A1B6812681A6053E16F2B03D17F4B1B
:100D20000121186807E0682B08D17C4B84481B68B8
:100D300002211B880360FFF7FFFE42E1772B06D1FB
:100D4000764B7F481B6804211B680360F3E7472B41
:100D500013D17B4B1868FFF729FF7C4B1B6883F38B
:100D6000088862B67A4B1B78002B00D129E16D4BC5
:100D700006201B681B68984723E1542B04D10123EC
:100D80003370684B1B685CE04E2B0BD13378002B23
:100D900005D1644B69481B680221DB689847002332
:100DA00033700EE1562B50D15E4D01212B686948FE
:100DB000DB6898472B680321DB6867489847674ED4
:100DC0002B68301CDB68012198472B680D21DB68FC
:100DD000634898472B68301CDB6801219847544FC3
:100DE000604B544E3B60002333603A1C311C136847
:100DF000581C10601B780393002B03D00B68013341
:100E00000B60F4E72B683168DB68564898472B681D
:100E10005248DB6801219847039830605248386097
:100E2000434A1368591C11601A78424B002A03D0B8
:100E30001A6801321A60F3E72A681968D36898477C
:100E40002B68DB683D480221BAE03D4A582B15D19A
:100E50002F4E314D366813682A68B100934208D28C
:100E60005808E06141482080207DC507FCD55B180B
:100E7000F4E72C4B3E481B68DB68A0E0592B33D1CC
:100E80001268264B3B49002A02D11B680B6026E002
:100E90000868196863688025AB4392086360002A7C
:100EA0001DD0354B2380237DDE07FCD50023184D54
:100EB0002D680095AD08AB4202D3304D258006E089
:100EC0009342FAD09D00465901334E51EFE7257DFC
:100ED000EE07FCD59D0049194019D21ADFE7114BE6
:100EE00027481B68DB686AE05A2B6AD10B4B1768EE
:100EF0001D680026EF19BD4244D02878311C00F04F
:100F0000B3F80135061CF6E7D010000000400041A0
:100F10003C02002034020020300200208002002029
:100F20002C02002084020020400200202402002025
:100F30002802002038020020900000201411000038
:100F40008C02002090020020200200208802002055
:100F500091000020F010000019110000F2100000B4
:100F60003C110000F41000000011000002A5FFFF7A
:100F7000091100008C00002044A5FFFF04A5FFFF1D
:100F80000D1100002E4D2F482B680121DB6898477A
:100F900007230F223240111C36093031092A00DDA7
:100FA00007311020C0186A468154013BF1D22B68EA
:100FB00004A8DB68082198472B682348DB680321D5
:100FC0009847224D7A232B70214B00221A60214B27
:100FD0001B7893422CD01A4B01211B681E48DB68FA
:100FE000984725E0111C3039C8B2194B092804D89C
:100FF0001E683201114319601AE0111C413905299C
:1010000003D81868373A010106E0111C6139052937
:1010100004D81D68573A29010A4308E02C2A03D155
:101020000E4A1E68166001E008490A7000221A6024
:101030000B4B1A6801321A600A4B1A680132F3E549
:101040008402002011110000131100002C02002066
:101050008C02002090000020171100008002002068
:1010600038020020280200200B0A5840034B4000A1
:10107000C05A0902484080B27047C0464A11000079
:1010800010B50023934203D0CC5CC4540133F9E77C
:1010900010BD031C8218934202D019700133FAE785
:1010A00070470000F8B5C046F8BC08BC9E467047C3
:1010B000F8B5C046F8BC08BC9E4670471201000255
:1010C000020000409A231800000200000001000006
:1010D0000800000010000000200000004000000098
:1010E0008000000000010000000200000004000079
:1010F000760020004E6F76203238203230313600B4
:1011000032323A31393A353500580A0D00590A0D54
:10111000005A00230A0D003E00322E30000000006D
:101120004D0A0000690A0000850A0000A90A0000B3
:10113000C50A0000A90A0000ED0A00005B417264C4
:1011400075696E6F3A58595A5D00000021104220AF
:1011500063308440A550C660E770088129914AA198
:101160006BB18CC1ADD1CEE1EFF13112100273320F
:101170005222B5529442F772D662399318837BB3E8
:101180005AA3BDD39CC3FFF3DEE36224433420049F
:101190000114E664C774A44485546AA54BB5288538
:1011A0000995EEE5CFF5ACC58DD5533672261116EF
:1011B0003006D776F6669556B4465BB77AA7199788
:1011C0003887DFF7FEE79DD7BCC7C448E558866877
:1011D000A7784008611802282338CCC9EDD98EE9D8
:1011E000AFF9488969990AA92BB9F55AD44AB77A4F
:1011F000966A711A500A333A122AFDDBDCCBBFFB28
:101200009EEB799B588B3BBB1AABA66C877CE44C5E
:10121000C55C222C033C600C411CAEED8FFDECCD77
:10122000CDDD2AAD0BBD688D499D977EB66ED55E2E
:10123000F44E133E322E511E700E9FFFBEEFDDDFC7
:10124000FCCF1BBF3AAF599F788F8891A981CAB153
:10125000EBA10CD12DC14EF16FE18010A100C23085
:10126000E3200450254046706760B9839893FBA340
:10127000DAB33DC31CD37FE35EF3B1029012F322D5
:10128000D2323542145277625672EAB5CBA5A89590
:1012900089856EF54FE52CD50DC5E234C324A01425
:1012A00081046674476424540544DBA7FAB7998720
:1012B000B8975FE77EF71DC73CD7D326F236910675
:1012C000B01657667676154634564CD96DC90EF968
:1012D0002FE9C899E9898AB9ABA9445865480678C5
:1012E0002768C018E1088238A3287DCB5CDB3FEB80
:1012F0001EFBF98BD89BBBAB9ABB754A545A376A15
:10130000167AF10AD01AB32A923A2EFD0FED6CDD4F
:101310004DCDAABD8BADE89DC98D267C076C645C64
:10132000454CA23C832CE01CC10C1FEF3EFF5DCF5F
:101330007CDF9BAFBABFD98FF89F176E367E554EB4
:10134000745E932EB23ED10EF01E0000000000002D
:10135000010000000902430002010080320904007C
:10136000000102020000052400100104240200050F
:10137000240600010524010001070583030800FF7E
:1013800009040100020A0000000705810240000074
:10139000070502024000000000C201000000080032
:0C13A00069000000410000000000000097
:04000003000005797B
:00000001FF
